:020000040800F2
:100000000000022051630008D10D0008D30D000844
:10001000D50D0008D70D0008D90D0008000000001C
:10002000000000000000000000000000DB0D0008E0
:10003000DD0D000800000000DF0D0008E10D0008E4
:10004000AD630008AD630008AD630008AD63000850
:10005000AD630008AD630008890F0008AD630008B8
:10006000AD630008AD630008AD630008B52100086A
:10007000AD630008AD630008AD630008AD63000820
:10008000AD630008AD630008AD630008AD63000810
:10009000AD630008AD630008AD630008AD63000800
:1000A000AD630008AD630008AD630008AD630008F0
:1000B000AD630008AD630008AD630008AD630008E0
:1000C000AD630008AD630008AD630008AD630008D0
:1000D000AD630008AD630008AD630008AD630008C0
:1000E000AD630008AD630008990F0008AD63000818
:1000F000AD630008AD630008AD630008B1210008DE
:10010000AD630008AD630008AD630008B9210008C5
:10011000AD630008AD630008AD630008AD6300087F
:10012000AD630008AD630008AD630008AD6300086F
:10013000AD630008AD630008AD630008AD6300085F
:10014000AD630008AD630008AD630008C90F000887
:10015000AD630008AD630008AD630008AD6300083F
:10016000AD630008AD630008AD630008AD6300082F
:10017000AD630008AD630008AD630008AD6300081F
:08018000AD630008AD63000847
:1001880082B0044B0190019A1A601A68002AFCD1C7
:1001980002B07047180200202DE9F04F0024AD4F3F
:1001A80091B02546A046002087F8008087F8018096
:1001B80001F0C4F8012001F0C1F8022001F0BEF8F6
:1001C800032001F0BBF807A803F05AFA089B642241
:1001D800B3FBF2F3B3F1807F09D25A1E9E4B5A60EB
:1001E8009E4AF02182F8231007229D601A600020A1
:1001F80001F0D4F8012001F0D1F8022001F0CEF886
:10020800032001F0CBF82FE001F0D6F80A20FFF721
:10021800B7FF012001F0D0F80A20FFF7B1FF022054
:1002280001F0CAF80A20FFF7ABFF0134032001F000
:10023800C3F8E4B20A20FFF7A3FF102C14D1264616
:10024800002001F0B9F8012001F0B6F8022001F011
:10025800B3F8032001F0B0F8013E0A20FFF790FF41
:10026800002416F0FF06EBD17878DFF8E891002833
:10027800CAD0002001F0EEF80128FAD004200121AC
:1002880089F8015003F090FA0820012103F068FA78
:100298004FF470430226029371488DF80C600323D3
:1002A80002A98DF80D308DF80E808DF80F8002F0C0
:1002B800ABFE0C2132466A4802F027FF0D21324678
:1002C800674802F022FF0E213246654802F01DFF02
:1002D8000F213246624802F018FF624B62481A68E2
:1002E800ADF818504FF47A63B2FBF3F3013B9BB2BD
:1002F80040F2CF7204A90592A9F80230ADF8103087
:10030800ADF8125003F0B8FD0121574803F027FE5D
:1003180060230126ADF82C305348ADF82E604FF419
:100328007A730BA90D93ADF8385003F046FE0021FF
:100338000A464D4804F038F808214B4803F08AFF74
:1003480049480BA903F072FE00220421464804F034
:100358002BF84548082103F085FF43480BA903F013
:10036800A9FE00220821404804F01EF808213E4852
:1003780003F082FF3C480BA903F0DEFE00220C21AB
:10038800394804F011F80821374803F07DFF364852
:10039800314603F006FE00210A46334804F004F80B
:1003A80004210022304803F0FFFF082100222E48D4
:1003B80003F0FAFF00220C212B4803F0F5FF2B482D
:1003C80040234FF0000A03700723837080F801A0D0
:1003D80080F803A080F804A001F09AF81E20FFF727
:1003E800CFFE2348DFF8A8A04670202303700C2313
:1003F800837089F8006001F0D3F92921504606225C
:1004080001F03EF99AF800201A4B1B481A709AF826
:1004180002201A4B1A709AF80430194A89F80430E5
:10042800184B31460093184B05F071FE7B78002B72
:10043800FCD0002001F00EF80128FAD00021134862
:1004480003F05FFB0C4805F0C2FA0B4805F028F9E9
:10045800A9E600BF9801002010E000E000ED00E0F0
:10046800000C024008000020000800401002002094
:100478001D02002020020020240200201C0200206F
:100488003C000020580000203C01002000300140C2
:1004980014080020034B1A6812B11A68013A1A604E
:1004A800704700BF18020020022108B5582002F04A
:1004B80009FD06484FF0553102F098FC022000F083
:1004C8007BFF0520FFF75CFEF8E700BFFCFF0F0885
:1004D80008B5034B1B780BB9FFF7E6FFFEE700BF33
:1004E8009801002037B52C484023032203700023CD
:1004F80082704370C370037101F00AF82748202303
:10050800037001240C238370447001F049F91E2004
:10051800FFF736FE0F210DF10700224601F0B0F873
:100528009DF807303B2B01D0FFF7BEFF1C4B1D4C3D
:100538004FF4FA721A601D4614E004222921194862
:1005480001F09EF894F90020A378002AB8BF52421F
:10055800D2B20F2A1BD85BB2002BB8BF5B42DBB20A
:100568000F2B14D82B68002BE7D10DE0002000F0EA
:1005780071FF0028FAD0002000F06CFF0128FAD0A3
:10058800002000F00BFF06E0FFF78EFF03E00020DD
:1005980000F0F6FEEAE73EBD100200201D02002032
:1005A80018020020140800202DE9F3410D20012134
:1005B80003F0D6F80024012520270226AA48009730
:1005C80069468DF804508DF806408DF807408DF87F
:1005D800056002F019FD3946A34802F089FDA348D9
:1005E800009569464FF400778DF804508DF8064061
:1005F8008DF807408DF8056002F006FD9C480097CD
:1006080069468DF804408DF806408DF807408DF84E
:10061800056002F0F9FC2946944802F069FD284675
:10062800FFF7AEFD9248394602F04EFD08B9FFF7D4
:100638003BFF022369464FF480658DF804408DF82E
:1006480006408B488DF80530012400958DF8074049
:1006580002F0DAFC2046FFF793FD8548294602F0B0
:1006680033FD08B9FFF720FF8048012102F03EFD65
:1006780001244FF4C053002502277D4800936946A2
:100688004FF400768DF804508DF806508DF8074029
:100698008DF8057002F0B8FC7548009669468DF82B
:1006A80004408DF806508DF807408DF8057002F06B
:1006B800ABFC31466E4802F01BFD2046FFF760FD9B
:1006C8006B484FF4006102F0FFFC10B9FFF7ECFE35
:1006D80006E067484FF4805102F0F6FC0028F5D098
:1006E800012500244FF480574FF0020860488DF828
:1006F800075069464FF4006600978DF804408DF85E
:1007080006408DF8058002F07FFC59488DF80450AA
:1007180069468DF8075000968DF806408DF80580DB
:1007280002F072FC3146524802F0E2FC2846FFF71C
:1007380027FD4F48394602F0C7FC254608B9FFF7A0
:10074800B3FE012402274A48009669464FF48056B2
:100758008DF804508DF806508DF807408DF8057017
:1007680002F052FC4248009669468DF804408DF824
:1007780006508DF807408DF8057002F045FC3146AB
:100788003B4802F0B5FC2046FFF7FAFC38484FF426
:10079800006102F099FC08B9FFF786FE02234FF4C6
:1007A80000758DF8044032488DF8053000246946FC
:1007B80000958DF806408DF8074002F025FC2C487E
:1007C800294602F093FC204600F0DAFD002000F0F4
:1007D80041FE0028FAD0002000F03CFE0028FAD1A3
:1007E80000F0DCFD22484FF4007102F081FC1E4845
:1007F800202102F07BFC1E484FF4806102F064FC6B
:1008080008B1FFF751FE4FF4C053002602251848DF
:100818000093694601244FF400778DF804608DF841
:1008280006608DF807508DF8055002F0EDFB104872
:10083800009769468DF804408DF806608DF80740EA
:100848008DF8055002F0E0FB3946094802F04EFCED
:100858002046FFF795FC06484FF4006102F034FC8F
:1008680040B9FFF721FE0CE0000C024000080240EE
:10087800000002404E484FF4805102F025FC002849
:10088800EFD04FF49053002602254948009369465B
:1008980001244FF400678DF804608DF806608DF828
:1008A80007508DF8055002F0AFFB414800976946A4
:1008B8008DF804408DF806608DF807408DF80550D6
:1008C80002F0A2FB39463A4802F010FC2046FFF736
:1008D80057FC37484FF4007102F0F6FB10B9FFF7E8
:1008E800E3FD06E032484FF4805102F0EDFB0028AA
:1008F800F5D04FF42063002602252D480093694661
:1009080001244FF480578DF804608DF806608DF847
:1009180007508DF8055002F077FB25480097694687
:100928008DF804408DF806608DF807408DF8055065
:1009380002F06AFB39461E4802F0D8FB2046FFF752
:100948001FFC1B484FF4007102F0BEFB10B9FFF703
:10095800ABFD06E016484FF4006102F0B5FB002835
:10096800F5D0002502244FF4C0536946104800937F
:100978004FF400768DF804508DF806508DF8074036
:100988008DF8054002F040FB0123694608480096AF
:100998008DF804308DF806508DF807308DF8054035
:1009A80002F032FB0248314602F0A2FBBDE8FC81AE
:1009B800000002402DE9F3414FF48070012102F05C
:1009C800FFFE01214FF4007002F0FAFE012001F051
:1009D800E9F8022057214BF6803201F031F908B1CD
:1009E800FFF762FD9848994D994F4FF44033002422
:1009F80043604FF47063C360046084603C7001F02E
:100A0800FBFC284601F0EEFC01264FF00073294656
:100A180090482B602C716C71AC602C612E7501F0C4
:100A2800BCFC29468C4801F0B8FC032504234FF090
:100A380002088A48009369468DF804508DF80740EB
:100A48008DF8058002F0E0FA08238448009369468F
:100A580002F0DAFA32462B467E487C804146BC805A
:100A680001F016FD32462B4629467B487C4C7D4DCD
:100A780001F00EFD3146774801F0D8FC3146764842
:100A880001F0D4FC784B4FF4FA721A601E4648E025
:100A9800704801F04EFD6F48022101F022FE002847
:100AA800F9D06C4801F071FD20806B4801F041FDE0
:100AB8006948022101F015FE0028F9D0664801F0C6
:100AC80064FD288023889BB2962B0DD92B889BB276
:100AD800092B09D85E4B5A8892B2B2F5FA7F03D037
:100AE8005A88013292B25A8023889BB2092B0DD8BA
:100AF8002B889BB2962B09D9554B9A8892B2B2F59E
:100B0800FA7F03D09A88013292B29A80504B5A8861
:100B180092B2B2F5FA7F04D19B889BB2B3F5FA7F03
:100B280004D03368002BB3D11C4600E001244948A7
:100B3800002101F07BFC4848002101F077FC0CB94A
:100B4800FFF7B2FC01F0ECF9022001F02BF80220CB
:100B580064214BF6803201F073F808B1FFF7A4FC6A
:100B68003B4B3C483F4D0124002221465A801C70D3
:100B78009A8001F05BFC21463748394C01F056FC5D
:100B8800394B4FF4FA721A601E4648E0314801F0BA
:100B9800D0FC3048022101F0A4FD0028F9D02D48EE
:100BA80001F0F3FC20802C4801F0C3FC2A48022104
:100BB80001F097FD0028F9D0274801F0E6FC2880CD
:100BC80023889BB2AA2B0DD92B889BB2AA2B09D9B3
:100BD8001F4B5A8892B2B2F5FA7F03D05A88013275
:100BE80092B25A8023889BB2092B0DD82B889BB2CE
:100BF800092B09D8164B9A8892B2B2F5FA7F03D01E
:100C08009A88013292B29A80114B5A8892B2B2F500
:100C1800FA7F04D19B889BB2B3F5FA7F03D033687F
:100C2800002BB3D10BE0002000F0AAFB002000F05D
:100C380011FC0028FAD0002000F0B0FB02E0FFF71A
:100C480033FCF0E7BDE8FC814808002020080020BC
:100C58009E010020002001400021014000000240C8
:100C68001C080020580800201802002070B54FF416
:100C7800804086B0012102F097FD0620012102F094
:100C88006FFD06AD0223002401268DF804302F489D
:100C98008DF806404FF48063694645F8183D8DF895
:100CA80007608DF8056002F0AFF905222748284D46
:100CB8000A2102F02AFA082326480093694602F01E
:100CC800A3F905220321234802F01FFA224802F063
:100CD80049FE4FF47A4304931023ADF80A301E48B6
:100CE800ADF80C404FF4407302A9ADF80830ADF8E8
:100CF8001440ADF80E4002F086FE1748314602F067
:100D08000CFF0A20FFF73CFA4FF4FA732B6012E04D
:100D18001148012102F0A9FF10B92B68002BF7D167
:100D28000D4802F069FF4FF6FF73984201D1013474
:100D3800E4B21D2C05D82B68002BE9D1FFF7B4FBD2
:100D480001E01E2CFAD106B070BD00BF00040240BD
:100D58001802002000080240003800407047704721
:100D680010B5154B154A1978D1B9DC8854B91989C9
:100D780032F811004A1C92B2302A14BF1A811C8121
:100D880001220AE00E4B1C8832F81400621C92B251
:100D9800302A14BF1A8019800022074BDA8010BD50
:100DA800198932F811004A1C92B2302A08BF002271
:100DB80080F400401A8110BD9E010020B063000835
:100DC80000000020FEE7FEE77047FEE7FEE7FEE7CB
:100DD800FEE770477047704770B5624B1B781BB9C8
:100DE800BDE87040FFF756BB5F4B604900225A7060
:100DF8009A7091F90220901C01DA072202E0022A77
:100E080001DDF9225A7091F900108A1C564A02DA5B
:100E18000721997003E0022901DDF92393705378C3
:100E280013B9514B9B7823B151484F49042204F020
:100E380079FE4D4E33790133DBB20A2B337140F022
:100E48008F804A4C4B48002529462A462570A570B4
:100E580003F0AAFA474804212A4603F0A5FA4548B0
:100E680008212A4603F0A0FA42480C212A4603F03A
:100E78009BFA29210622204600F002FC3E4B2278EC
:100E88001B78A178D31A3D4A12788A1ADBB2D2B2FB
:100E98002370A2705BB252B2002AB8BF524283EAF2
:100EA800E371A1EBE371D2B2C9B28A4238BF0A46F4
:100EB80072717279002A50D002330CDA2D480C2155
:100EC800012203F071FA73792A484FF47A7191FB81
:100ED800F3F103F099F9254B93F90030022B0DDD5E
:100EE80024480421012203F05FFA1F4B21485B7953
:100EF8004FF47A7191FBF3F103F082F91B4B93F9EC
:100F08000230022B0DDD1B480021012203F04CFAB0
:100F1800154B18485B794FF47A7191FBF3F103F0A4
:100F28006DF9124B93F9023002330DDA114808219A
:100F3800012203F039FA0C4B0E485B794FF47A71B1
:100F480091FBF3F103F05EF9074B0A485B7940F235
:100F5800CF7191FBF3F102F0E3FF034B00221A710A
:100F680070BD00BF98010020AA01002014080020CD
:100F78002402002000080040200200201C0200205B
:100F8800024B0120187001F0DFBD00BF990100205D
:100F980010B5094CA37A4BB1084B1A6922F0060226
:100FA8001A6100F013F8204604F06AFB4FF4802021
:100FB800BDE8104001F0C8BD2402002000ED00E0AB
:100FC800014803F0F9BC00BF240200203B4B1A681B
:100FD80042F001021A6000229A60196821F08471B7
:100FE80021F48031196036495960196882B021F4BA
:100FF80080211960DA60009201921A6842F4803206
:101008001A601A6802F400320192009A01320092C2
:10101800019A1AB9009AB2F5A06FF2D1274B1B6852
:1010280013F4003318BF01230193019B012B0CD04B
:10103800224B9A6822F400029A60224AC3F884205C
:101048001A6842F080621A602FE01C4B1A6C42F05A
:1010580080521A641C4A116841F4804111609A68F0
:101068009A609A6842F400429A609A6842F4A052E0
:101078009A60164A5A601A6842F080721A601968B3
:101088000E4A8901FBD5124B40F20561196093683D
:1010980023F003039360936843F00203936093681B
:1010A80003F00C03082BFAD1C2E71A681201FCD529
:1010B800084B4FF000629A6002B070470038024057
:1010C80010300024003000500070004008544007E1
:1010D800003C024000ED00E0184B194A996801F005
:1010E8000C01042903D0082903D0164B19E0164B2C
:1010F80017E059685A6811F4800F596814BF124BE9
:10110800104B02F03F02B3FBF2F30C4A5268C2F3F1
:101118000142C1F38811013252004B43B3FBF2F391
:10112800074A1360054B9A68054BC2F303129A18D5
:1011380011791A6822FA01F21A60704700380240E1
:10114800080000200024F40000127A00F7B50120FE
:10115800294D014602F004FB4FF4D85300260093B2
:1011680003270223284669468DF804308DF8057058
:101178008DF806608DF8076001F046FF28460821C3
:101188000A2201F0C2FF284609210A2201F0BDFF08
:1011980028460B210A2201F0B8FF0A2228460C2112
:1011A80001F0B3FF01244FF4806328466946009399
:1011B8008DF806408DF807408DF8057001F024FF82
:1011C8000A210A46284601F0A0FF21464FF4804034
:1011D80002F0F6FA8020214602F0CEFA21464FF0BE
:1011E800805002F01DFB3046214600F0F5F82046FD
:1011F80001F0AAFCFEBD00BF0000024007B54FF495
:10120800C06001F05BF843238DF80430032201230A
:1012180001A88DF805308DF806208DF8073001F00B
:1012280057F80EBD782358430722B0FBF2F000238D
:1012380001338342FCD970474FF47A735843FFF760
:10124800F1BF00BF12230B80004870471C0000202C
:1012580004230B80004870472E00002010B5044C72
:1012680004480A46214604F047FE204610BD00BF48
:10127800A00800203B64000810B5044C04480A4646
:10128800214604F039FE204610BD00BFA00800200A
:101298004E64000810B5044C04480A46214604F080
:1012A8002BFE204610BD00BFA00800205C6400088B
:1012B80008B50A4608B9044800E00448044904F09F
:1012C8001BFE034808BD00BF67640008746400087B
:1012D800A008002008B50A4608B9044800E00448F8
:1012E800044904F009FE034808BD00BF81640008F2
:1012F80095640008A0080020704770477047704741
:10130800704770470A4B1A681823B2FBF3F3B3F11E
:10131800807F0BD25A1E074B5A60074AF02182F889
:10132800231000229A6007221A607047FEE700BF68
:101338000800002010E000E000ED00E037B50E4D99
:10134800044655F8200005EB4405012102F008FA8F
:101358002B8A009301238DF804308DF8073002237F
:101368008DF80530054B002253F824008DF806202F
:10137800694601F049FE3EBD106400087400002073
:10138800044A054B53F8203002EB4000028A1A83C6
:10139800704700BF1064000874000020044A054B21
:1013A80053F8203002EB4000028A5A83704700BF8E
:1013B80010640008740000200549064B53F82030DB
:1013C80001EB40005A69018A4A405A61704700BFE0
:1013D800106400087400002070B50646012086B02D
:1013E8000D46014602F0BCF901214FF4804002F09D
:1013F800E7F906A9012341F8103D154B03EB8606D2
:10140800002430698DF80C408DF80F4001F0FCFD88
:10141800012D1BD12046214600F022FF082304A8F5
:101428008DF8153004958DF814408DF8165001F09C
:1014380023FB06238DF8043001A80F238DF805300F
:101448008DF806308DF8075000F042FF06B070BDE9
:101458007400002008B5044B03EB800001210069EB
:1014680001F032FE08BD00BF7400002070B5164DB3
:101478004FF4805306462B6004E02B685A1E2A60FE
:1014880003B912E01148104C022102F0EEFB0028CB
:10149800F3D00E48314602F0B2FB4FF4805323607C
:1014A80006E023685A1E226013B9FFF711F808E016
:1014B8000648012102F0D9FB0028F2D0034802F0C7
:1014C8009BFBC0B270BD00BF880000200030014007
:1014D800012A70B50D46064688BF41F040050B4805
:1014E8000821144601F004FE2846FFF7BFFF05E077
:1014F80016F8010BFFF7BAFF013CA4B2002CF7D194
:1015080002480821BDE8704001F0F0BD001002401B
:101518002DE9F04F89B00025804601214FF4805015
:101528008DF8035002F04CF90120014602F018F939
:101538001020012102F014F91020012102F010F905
:101548004C4EDFF838911020012102F009F90521ED
:101558004FF0200B30460A460DEB0B0401F0D5FD89
:1015680030460621052201F0D0FD0522304607212C
:1015780001F0CBFD44F81CBD0227304621468DF80A
:101588000A508DF808708DF80B708DF8097001F00D
:101598003BFD802330462146019301F035FD402371
:1015A80021463046019301F02FFD484602F0DAF952
:1015B8004FF40073ADF8163007234FF0080AADF862
:1015C8001C3048464FF4827303A9ADF80E30ADF8CD
:1015D8000C50ADF81050ADF81250ADF81450ADF8ED
:1015E8001A50ADF818A002F0EFF94846012102F0B0
:1015F80088FA2E468DF80A501F4DCDF804A04FF0FA
:101608000109284621468DF808908DF8097001F0E7
:10161800FBFC2846514601F069FD28462146CDF8D5
:1016280004908DF808608DF80A608DF809708DF8BF
:101638000B6001F0E9FC28462146019701F0E4FC23
:1016480098F8002098F80130134398F803201343C2
:1016580098F80420134398F802200DEB0B0013436D
:1016680000F81D3D59464A46FFF732FF09B0BDE86C
:10167800F08F00BF0000024000100240003001401F
:10168800012A70B58CBF41F0C00641F080060546BE
:1016980008210B48144601F02BFD3046FFF7E6FE03
:1016A80006E00020FFF7E2FE013C05F8010BA4B2BA
:1016B800002CF6D102480821BDE8704001F016BDA3
:1016C8000010024007B521210DF107000122FFF7A4
:1016D800D7FF9DF807300DF1070043F040032121A3
:1016E80001228DF80730FFF7F3FE0EBD13B5012276
:1016F800202104460DF10700FFF7C2FF9DF80730CF
:1017080023F020031C430DF10700202101228DF84E
:101718000740FFF7DDFE1CBD13B50122202104465A
:101728000DF10700FFF7ACFF9DF8073003F07F03CA
:101738001C430DF10700202101228DF80740FFF717
:10174800C7FE1CBD13B50122202104460DF1070078
:10175800FFF796FF9DF8073023F040031C430DF177
:101768000700202101228DF80740FFF7B1FE1CBDBC
:1017780037B502AC002304F8013D05463821204660
:101788000122FFF77DFF6A782B781343AA78204659
:101798001343382101228DF80730FFF799FE3EBD2B
:1017A80037B502AC002304F8013D05462121204647
:1017B8000122FFF765FF6A782B781343AA78134351
:1017C8009DF8072022F02F021343204621210122F1
:1017D8008DF80730FFF77CFE3EBD1FB520210122A2
:1017E80004460DF10700FFF74BFF062202A8292146
:1017F800FFF746FF9DF8073003F0200303F0FF02D0
:1018080093B11AB39DF908309A0102EBC303236020
:101818009DF90A309A0102EBC30363609DF90C300D
:101828009A0102EBC30310E09DF908301A0102EB9C
:10183800430323609DF90A301A0102EB43036360F6
:101848009DF90C301A0102EB4303A3601FBD00BFD2
:1018580070B5204C94E8030001F06BF82646002888
:1018680037D0A56835B330681A4C01F05AF800280B
:10187800F9D1194D94E8030001F076F817492B685F
:1018880020688B60A3684FF6FF76B34294BF0B6164
:101898000E6100F0CFFF2068012101F006F8A3686F
:1018A8002A68B34238BF1E4602EB46029E1B2A60D6
:1018B800A66070BD2068294600F0F7FF94E8030091
:1018C80001F052F8044B18682946BDE87040FFF74C
:1018D80045BA70BD8C00002060080020B0010020CF
:1018E800F8B5894E4FF4961304460D46F36004E0AC
:1018F800F3685A1EF26003B93CE08448824F4FF403
:10190800003101F0D4FD0028F2D18048012101F016
:10191800C3FC4FF48053FB6004E0FB685A1EFA6076
:1019280003B927E079487A49774E01F0ACFD0028E1
:10193800F3D076489421002201F0C6FC4FF480537E
:10194800F36004E0F3685A1EF26003B912E06F48CE
:1019580070496D4F01F097FD0028F3D06B48214680
:1019680001F035FD4FF48053FB6007E0FB685A1E19
:10197800FA601BB9BDE8F840FFF725BA6348664925
:10198800614E01F080FD0028F0D06048294601F042
:101998001EFD4FF49613F36005E0F3685A1EF260DB
:1019A8000BB9FFF710FA59485C49574F01F07FFD12
:1019B8000028F2D05548012101F07AFC4FF4961323
:1019C800FB603E4604E0F3685A1EF26003B997E0F4
:1019D8004E484D4F4FF4003101F069FD0028F2D117
:1019E8004A48012101F058FC4FF48053FB6004E0A1
:1019F800FB685A1EFA6003B982E044484449424EE3
:101A080001F041FD0028F3D040489421002201F064
:101A18005BFC4FF48053F36004E0F3685A1EF260F5
:101A280003B96DE039483B49374F01F02CFD0028D8
:101A3800F3D02146354801F0CAFC4FF48053FB60CF
:101A48003C4604E0E3685A1EE26003B958E02F48B8
:101A580032492D4E01F02BFD0028F3D02B480121EF
:101A680001F01AFC4FF48053F36004E0F3685A1E47
:101A7800F26003B944E025482549234C01F003FDF1
:101A88000028F3D021489421012201F01DFC4FF4D5
:101A98008053E360274604E0FB685A1EFA6003B9E6
:101AA8002EE01A4C1E49184E204601F000FD002871
:101AB800F2D02046002101F00FFC20460121238BA3
:101AC80001F0F6FB4FF48053F360344604E0E3681A
:101AD8005A1EE26003B913E00C4812490A4E01F09D
:101AE800E6FC0028F3D0094801F073FC4FF480535A
:101AF8000446F360054A17E0F368591EF1609BB984
:101B0800FFF761F904461DE08C00002000540040F6
:101B18000100030082000700800007000400001095
:101B28000200001040000010138803F400739BB2F9
:101B3800002BE1D10548012101F0CEFB03480449FF
:101B480001F0CFFC601B18BF0120F8BD0054004015
:101B5800000400100420FF21FFF7C2BE38B500F1D1
:101B68001904E4B221462020FFF7BAFE21460546B3
:101B78002120FFF7B5FE401938BD08B508481021E7
:101B8800002201F0B7FA44F6FF7300E0013B002B96
:101B9800FCD103481021012201F0ACFA08BD00BFB6
:101BA800000C02401C4B18611A69012A1AD14FF423
:101BB80000125A61194A1A60194A9A61194A002191
:101BC800D1632F22DA614FF020525A604FF0105241
:101BD8001A624FF001525A624FF008529A624FF05F
:101BE800045216E0022815D14FF400125A610E4A29
:101BF8001A600E4A9A610B4A0021D1630B22DA61FE
:101C08000B4A5A60103A1A620A4A5A620A4A9A6297
:101C18000A4ADA62704700BF8C000020B8600240B0
:101C28000C3C0040B0010020106002400C740040E1
:101C3800200000100100801008000010040080102F
:101C48002DE9F043642991B090464FF0640905D816
:101C5800C1EB012191FBF9F95FFA89F9082001210B
:101C680001F07EFD0225002401261027A3480297D3
:101C780002A98DF80C608DF80D508DF80E408DF886
:101C88000F4001F0C1F90720314601F069FD4FF41A
:101C980010739B48029302A98DF80C508DF80D50D3
:101CA8008DF80E608DF80F4001F0AEF90621042280
:101CB800934801F02AFA04220921914801F025FAF3
:101CC8004FF4A0538F48029302A98DF80C508DF859
:101CD8000D508DF80E408DF80F4001F095F9042154
:101CE8000622894801F011FA0A210622854801F0E6
:101CF8000CFA864B1B69AB420AD002A982480297AC
:101D080001F082F97F480C21062201F0FEF90DE06E
:101D18003046314601F024FD03237B48029702A98F
:101D28008DF80C308DF80F4001F06EF980230225F4
:101D380000247448029302A98DF80C508DF80D50B8
:101D48008DF80E408DF80F4001F05EF9062207214C
:101D58006C4801F0DAF9FFF710FF01214FF4001089
:101D680001F022FD6A4801F0E7F94BF6FF73ADF880
:101D780016303323ADF818304FF48063ADF81A30BD
:101D88004FF48043ADF81C3010AE624B604846F803
:101D9800303D0121ADF8144001F072FA5C4831463B
:101DA80001F0F8F901212846FFF79AFDAF21054611
:101DB8000420FFF795FD584BAF22812145190520D6
:101DC80083F84020FFF78CFD04212D180620FFF72B
:101DD80087FD2D184846FFF7C1FE4C4B1B69022BA7
:101DE80019D101210820FFF77BFD012106460920B2
:101DF800FFF776FD30184519C0210E20FFF770FD5A
:101E080021462D181420FFF76BFD21462D181520AB
:101E1800FFF766FD2D189E210220FFF761FD0021C6
:101E28002D180A20FFF75CFD384B1B69022B05446F
:101E380004D00E200421FFF753FD2D180021272080
:101E4800FFF74EFD0F212D181F20FFF749FD0A212E
:101E58002D181A20FFF744FD0A212D181B20FFF723
:101E68003FFD01212D184FF4004001F09DFC2B4847
:101E780001F078FD00244FF400732848ADF82030B5
:101E880008A9ADF82630CDF82880ADF82240ADF885
:101E98002440ADF82C4001F0B6FD1C4B1B69022B09
:101EA8000FD14FF00050012101F07EFC20460CA913
:101EB8000C940D940F9402F09CFC2046012102F032
:101EC800B5FCBDB93323012401A88DF804308DF881
:101ED80005508DF806508DF8074000F0F9F90F48C5
:101EE8007121224601F0B1FE0C48214601F015FE91
:101EF800284600E0012011B0BDE8F083000C024044
:101F08000004024000080240000002408C0000204B
:101F180000540040A0860100B0010020003C0040B1
:101F28007FB52E4D2E4EEB69002401A88DF80430A4
:101F38008DF805408DF806408DF8074000F0C8F987
:101F48002146286800F0B1FC2868264D00F0E4FB23
:101F5800FFF713FE01210220FFF7C2FC4FF4A05344
:101F6800284602A902938DF80C408DF80D408DF893
:101F78000E408DF80F4001F047F81023304602A9B3
:101F8800029301F041F830460421224601F0BDF8E1
:101F980028460A21224601F0B8F8224628460C2194
:101FA80001F0B3F88023284602A9029301F02CF827
:101FB800062228460721A5F5E63501F0A6F82146B0
:101FC800284601F0AAFD284601F0CCFC4FF4004059
:101FD800214601F0E9FB204604B070BD8C000020CA
:101FE8000000024000080240F8B54E081A4BB6F54A
:101FF800003F05461E631A4601D28B0801E04FF6E2
:10200800FF7317691549144C8D60012F0B61206807
:1020180004D100F00FFC2068394603E000F00AFC08
:102028002068012100F041FC0D48838B03F4806394
:102038009BB213B9012101F070FD074A136B4FF6EB
:10204800FF718B4228BF0B46F61A9660054A05EBCE
:10205800430515600020F8BD8C000020B001002069
:10206800003C00406008002070B550B9FFF772FDD1
:10207800012104460220FFF733FC241816D0012062
:1020880070BD1C4D042095F84010FFF729FC95F809
:10209800401004460420FFF723FC9E210546022039
:1020A800FFF71EFC40190619E9D10BE00221224670
:1020B800114801F0C1FD114B2146186800F0F5FBED
:1020C800204670BD0C4C02212046012201F0B4FDCF
:1020D8000A4B0121186800F0E8FBA58B05F4806520
:1020E800ADB22DB92046012101F017FD284670BD7B
:1020F800304670BDB0010020003C00408C0000203C
:1021080038B50446FFF726FD022C05D120469F214D
:10211800FFF7E6FB05460EE002209F21FFF7E0FBF4
:1021280040F6FF72054600E0013A002AFCD10F484C
:10213800102100F0DFFFBDB90D4C2946206800F0E2
:10214800B4FB6368226A20681A43636A42EA03019F
:10215800A36A194300F008FC0648294601F0DDFC93
:10216800236B2846A36038BD012038BD000C02400F
:102178008C000020003C004064284FF064039DBFA1
:10218800C0EB002090FBF3F0C0B21846FFF7E6BCA6
:10219800012801D1FFF7DEBC024B93F84010042060
:1021A800FFF79EBBB0010020FFF752BBFFF750BB03
:1021B80008B50C48022101F058FD88B10A4B1B698B
:1021C800022B05D1FEF7CCFD0146042002F06CFB82
:1021D800FEF7C6FD01460348BDE8084001F00FBD03
:1021E80008BD00BF003C00408C00002010B5012154
:1021F80086B0104801F0B4FA01214FF0005001F008
:10220800D3FA102300240093694603230A488DF863
:1022180004308DF8074000F0F7FE204602A902942A
:102228000394059402F0E5FA2046012102F0FEFA33
:1022380006B010BD010020000000024008B50121D1
:102248004FF4804001F0F8FA4FF480400021BDE8D7
:10225800084001F0F1BA014B18607047003801409E
:1022680001F0030289080A4B023130B5920053F895
:1022780021500F2404FA02F425EA040443F821400B
:1022880053F8214000FA02F0044343F8214030BDDE
:1022980000380140014B1860704700BFDC0027423E
:1022A800014B1860704700BF00042742024B186AB0
:1022B800C0F30020704700BF0038014040F0BF6005
:1022C800024B40F40030D860704700BF00ED00E0DA
:1022D800C37813B3174B4178DB68DB43C3F302239E
:1022E800C3F10402D2B201FA02F20F2141FA03F358
:1022F8008178D2B20B401A43037803F1604303F5A7
:1023080061431201D2B283F80023037801225909EC
:1023180003F01F0302FA03F307E0037801225909C7
:1023280003F01F0302FA03F32031034A42F8213075
:10233800704700BF00ED00E000E100E021F06041DF
:1023480021F07F01014B08439860704700ED00E0E1
:10235800044B1A6909B1104301E022EA0000186130
:10236800704700BF00ED00E0044B1A6804280CBF5A
:1023780042F0040222F004021A60704710E000E004
:1023880008B501214FF4807001F056FA4FF48070BF
:102398000021BDE8084001F04FBA42680B6822F0FE
:1023A800407222F4807213430A7943EA022343609D
:1023B800CA680B691A438B6810B51A438468084BBE
:1023C800234013434A7943EA420383600B7DC26A80
:1023D800013B22F47002DBB242EA0353C36210BD30
:1023E800FDF7FFC000230360037143718360C3607E
:1023F8000361012303757047074A084B516810B5FC
:102408000B4090E812000C438168C06821430143E7
:102418000B43536010BD00BF00230140E030FCFFB8
:102428000023036043608360C3607047836811B111
:1024380043F0010301E023F0010383607047436820
:1024480023F4400323F40073194341607047416249
:1024580082627047436823F01F0319434160704745
:10246800044B5A6810B142F4000201E022F4000261
:102478005A60704700230140044B5A6810B142F477
:10248800800201E022F480025A6070470023014074
:10249800092970B50CB20ED904EB44041E3CC66879
:1024A800072505FA04F526EA050503FA04F345EAC3
:1024B8000304C4600BE0066904EB4404072505FA2D
:1024C80004F526EA050503FA04F42C430461062AF8
:1024D8000ED80523013A5A43446B1F2303FA02F32B
:1024E80024EA030301FA02F143EA0102426370BDE0
:1024F8000C2A12B20ED802EB8202233A046B1F2375
:1025080003FA02F324EA030301FA02F143EA01029F
:10251800026370BD02EB8202413AC46A1F2303FAC8
:1025280002F324EA030301FA02F143EA0102C26258
:1025380070BD836843F08043836070478068C0F350
:1025480080507047836811B143F4806301E023F43D
:10255800806383607047836811B143F0020301E030
:1025680023F00203836070474368013923F4604312
:1025780043EA413343607047436811B143F4006351
:1025880001E023F4006343607047C06C80B2704779
:10259800014B1868704700BF08230140836811B1D8
:1025A80043F4807301E023F4807383607047836889
:1025B80011B143F4007301E023F4007383607047A2
:1025C800044B5A6810B142F4005201E022F4005260
:1025D8005A60704700230140092970B50CB20ED922
:1025E80004EB44041E3CC668072505FA04F526EAF0
:1025F800050503FA04F345EA0304C4600BE0066921
:1026080004EB4404072505FA04F526EA050503FA50
:1026180004F42C430461846BC4F30153D31A0233CA
:10262800DBB203EB83031F2202FA03F224EA02045B
:1026380001FA03F144EA0103836370BD836B013936
:1026480023F4401343EA01538363704782B00023A5
:1026580001930190019BC9180191019B1A6002B076
:102668007047836823F47023194381607047836837
:1026780023F44013194381607047836843F480034F
:10268800836070478068C0F380507047436811B119
:1026980043F4806301E023F4806343607047436838
:1026A80011B143F4805301E023F480534360704731
:1026B80082B0002301930190019B2833591801919E
:1026C800019B186880B202B070470123C9B203FAAF
:1026D80001F143680AB1194301E023EA01014160AD
:1026E8007047036819420CBF002001207047C94396
:1026F800016070474368006810EA112007D0012282
:10270800C9B202FA01F119420CBF0020012070473A
:102718006FEA112101607047036823F00103036029
:102728000023036043608360C36003612123436126
:102738002D4B984200D11EE02C4B984200D121E04D
:102748002B4B984200D125E02A4B984200D129E032
:10275800294B984200D12DE0284B984200D130E017
:10276800274B984200D133E0264B984200D136E0FF
:10277800254B984203D13D2243F8082C7047234B40
:10278800984204D14FF4746243F8202C7047204BD0
:10279800984204D14FF4741243F8382C70471D4BFB
:1027A800984204D14FF0746243F8502C70471A4B8A
:1027B800984203D1194A43F8642C7047184B984241
:1027C80003D1184A43F87C2C7047174B984203D121
:1027D800164A43F8942C7047154B984203D14FF092
:1027E8003D5243F8AC2C704710600240286002400C
:1027F80040600240586002407060024088600240B9
:10280800A0600240B86002401064024028640240A0
:102818004064024058640240706402403D00002059
:1028280088640240400F0020A064024000003D2060
:10283800B86402400268134B10B51340CC680A68AC
:1028480014434A6914438A691443CA6914430A6AD7
:1028580014434A6A14438A6A14434A6B14438A6BC2
:1028680022431343036044690A6BCB6A24F00704CC
:102878001343234343610B6943604B6883608B6850
:10288800C36010BD3F801CF0002303604360836079
:10289800C360036143618361C3610362436283620E
:1028A800C3620363436383637047036811B143F0F2
:1028B800010301E023F0010303607047036811B1CD
:1028C80043F4004301E023F40043036070470368C6
:1028D80011B143F0200301E023F0200303607047A7
:1028E80041607047406880B27047036812B143F492
:1028F800002301E023F400230360016170470368AB
:1029080011B143F4802301E023F48023036070476E
:102918000AB101617047C16070470068C0F3C040E8
:102928007047006800F001007047406900F0380007
:1029380070470A4B0A4A10B50A4CA0428CBF104691
:1029480018468B004CBF4368036821F0F02121F042
:10295800821119420CBF0020012010BD0060024006
:10296800006402400F64024010B5084B084A094C45
:10297800A0428CBF1046184611F0005F21F0F021EC
:1029880021F0821114BFC160816010BD0060024057
:10299800006402400F6402400B0611D543694AB136
:1029A80043F080038029436114D0036801F01E01BD
:1029B80019430EE023F080038029436104D1704756
:1029C800802907D0002AF0D1036801F01E0123EA0C
:1029D800010101607047124B124A10B5124CA04217
:1029E8008CBF14461C4621F0F02323F0C3132BB1EF
:1029F800026802F01E0202EAD12202E0426902F0F5
:102A0800800288004CBF6368236821F0F02121F020
:102A18008210184002D0101C18BF012010BD00BF42
:102A280000600240006402400F64024010B5084B89
:102A3800084A094CA0428CBF1046184611F0005FA6
:102A480021F0F02121F0821114BFC160816010BD16
:102A580000600240006402400F640240044B002200
:102A68001A605A609A60DA60024A5A61704700BF79
:102A7800003C0140FFFF7F00837910B5002B29D06F
:102A88001A4B01681C68CA4314401C605C682240E9
:102A98005A60027902F1804202F59E32146821439D
:102AA800116002689C68D1430C409C60DC6821403E
:102AB800D9604179102906D1996811439960D9687C
:102AC8000A43DA6010BD01F1804303F59E331968AB
:102AD8000A4308E00379016803F1804303F59E3354
:102AE8001A6822EA01021A6010BD00BF003C0140CA
:102AF80000230C2203600371427183717047024BFB
:102B08001A69104318617047003C0140034B5B6928
:102B180018420CBF00200120704700BF003C014054
:102B2800014B5861704700BF003C0140054B1A68D3
:102B38005B69034004D010420CBF0020012070479D
:102B480018467047003C0140014B5861704700BF70
:102B5800003C0140014BC0B218707047003C024075
:102B6800044B1A6810B142F4807201E022F48072BA
:102B78001A607047003C0240044B1A6810B142F4D6
:102B8800007201E022F400721A607047003C0240B3
:102B9800044B1A6810B142F4806201E022F48062AA
:102BA8001A607047003C0240024B1A6842F4006207
:102BB8001A607047003C0240024B1A6842F4805287
:102BC8001A607047003C0240044B1A69002A04DA74
:102BD800034A5A6002F188325A607047003C02404A
:102BE80023016745024B1A6942F000421A61704797
:102BF800003C0240044B5A69D20704D5034A9A6044
:102C080002F144329A607047003C02403B2A19089E
:102C1800024B5A6942F001025A617047003C024077
:102C2800044B1A7802F0F3021A701A7810431870DD
:102C3800704700BF143C0240024B5869C0F347106C
:102C4800704700BF003C0240014B188880B27047B3
:102C5800163C0240024B1878AA3818BF012070476A
:102C6800153C0240024B187800F00C00704700BF7A
:102C7800143C0240044B1A6909B1104301E022EAEE
:102C880000001861704700BF003C0240034BDB683E
:102C980018420CBF00200120704700BF003C0240D2
:102CA800014BD860704700BF003C02400B4BDA680C
:102CB800D0030DD4DA68D1060CD4DA6812F0EF0F1D
:102CC8000AD1DB6813F0020F0CBF082007207047F9
:102CD800012070470520704706207047003C0240DD
:102CE80007B508238DF80730FFF7E0FF8DF80700D8
:102CF8009DF80730012BF7D09DF807000EBD034B58
:102D08001A7842F002021A70FFF7EABF143C024038
:102D180070B504460D461646FFF7E2FF082807D1AE
:102D2800044B1A7802F00F02144325432E431E70F9
:102D380070BD00BF143C024010B50446FFF7D0FF39
:102D4800082804BF014B1C7010BD00BF153C024091
:102D580038B504460D46FFF7C3FF082809D1054BCF
:102D68001A881DB192B222EA040401E01443A4B205
:102D78001C8038BD163C024070B505460E46FFF76C
:102D8800AFFF082811D1094C236923F4407323614C
:102D980023692361236943F0010323612E70FFF740
:102DA8009FFF236923F00103236170BD003C0240AB
:102DB80070B505460E46FFF793FF082813D10A4C55
:102DC800236923F440732361236943F480732361E7
:102DD800236943F0010323612E80FFF781FF2369F4
:102DE80023F00103236170BD003C024070B5054625
:102DF8000E46FFF775FF082813D10A4C236923F400
:102E080040732361236943F400732361236943F00A
:102E1800010323612E60FFF763FF236923F0010399
:102E2800236170BD003C0240F8B5074614461D46B4
:102E3800FFF756FF082814D10A4E336923F440736C
:102E48003361336943F440733361336943F00103F9
:102E58003361C7E90045FFF743FF336923F00103F6
:102E68003361F8BD003C024010B50446FFF738FF57
:102E780044B1012C08D0022C14BF4FF440734FF416
:102E8800007303E0234601E04FF48073082815D14E
:102E98000B4C226922F44072226122691343236198
:102EA800236943F004032361236943F480332361D6
:102EB800FFF716FF236923F00403236110BD00BF49
:102EC800003C024070B5064641B1012908D00229EC
:102ED80014BF4FF440754FF4007503E00D4601E050
:102EE8004FF48075FFF7FCFE08281ED10F4C2369AC
:102EF80023F44073236121690D432561236923F07D
:102F0800F8032361236943F002031E432661236902
:102F180043F480332361FFF7E3FE236923F00203C0
:102F28002361236923F0F803236170BD003C02404C
:102F380008B52C4B984205D10120014600F04CFC05
:102F4800012048E0284B984205D10220012100F0D9
:102F580043FC02203FE0254B984205D10420012183
:102F680000F03AFC042036E0214B984205D10820B5
:102F7800012100F031FC08202DE01E4B984205D1BC
:102F88001020012100F028FC102024E01A4B984260
:102F980005D12020012100F01FFC20201BE0174B49
:102FA800984205D14020012100F016FC402012E093
:102FB800134B984205D18020012100F00DFC8020A0
:102FC80009E0104B98420BD14FF48070012100F0BA
:102FD80003FC4FF480700021BDE8084000F0FCBB02
:102FE80008BD00BF00000240000402400008024083
:102FF800000C024000100240001402400018024079
:10300800001C0240002002402DE9F0470F68002311
:103018004FF0010C4FF003080CFA03F202EA07051F
:10302800954231D15A00066808FA02F4E443264072
:1030380006600E79D0F8009006FA02FA013E4AEAD4
:103048000909012EC0F8009015D8866891F80590F6
:1030580026408660866809FA02F949EA060686600B
:10306800466826EA050545608D79466805FA03F540
:10307800ADB235434560C5682C40C460CD79C4689D
:1030880005FA02F22243C2600133102BC4D1BDE815
:10309800F0874FF6FF730360002303714371837158
:1030A800C371704782B04FF480330193019B0B4387
:1030B8000193019BC361C161019BC361C369019312
:1030C800C369019302B07047036919420CBF00201D
:1030D80001207047006980B27047436919420CBFEC
:1030E800002001207047406980B270470183704713
:1030F800418370470AB1018370474183704741613A
:103108007047436959404161704701F00703C90896
:10311800083130B59B0050F821500F2404FA03F40D
:1031280025EA040440F8214050F8214002FA03F24D
:10313800144340F8214030BD08B5134B984207D1DD
:103148004FF40010012100F06BFB4FF4001014E065
:103158000E4B984207D14FF48000012100F060FB2C
:103168004FF4800009E00A4B98420BD14FF400005D
:10317800012100F055FB4FF400000021BDE8084094
:1031880000F04EBB08BD00BF00540040005800408E
:10319800005C0040F0B585B00446868868460D4658
:1031A80000F06EFA02992D482B6826F03F06360487
:1031B800B1FBF0F0360C87B23E43A680228822F09D
:1031C80001021204120C2280254A93420AD85B009D
:1031D800B1FBF3F301379BB2BFB22784032B98BF2F
:1031E800042320E0EE884BF6FF72964204D10322B6
:1031F8005343B1FBF3F305E019225343B1FBF3F357
:1032080043F480439BB21A054FF4967208BF43F00B
:10321800010350434FF47A7290FBF2F0013080B210
:1032280043F400432084A38323886989AA889BB236
:1032380043F001032380238823F4816323F00203EE
:103248001B040A431B0C13439BB223802A89AB89B6
:1032580013439BB2238105B0F0BD00BF40420F006D
:10326800A086010041F288330360002383804BF677
:10327800FF72038143814FF48043C280838170478A
:10328800038819B19BB243F0010303E023F0010363
:103298001B041B0C03807047038819B19BB243F4CD
:1032A800807303E023F480731B041B0C03807047B6
:1032B800038819B19BB243F4007303E023F400734D
:1032C8001B041B0C0380704712B141F0010101E09F
:1032D80001F0FE0101827047038819B19BB243F4E3
:1032E800806303E023F480631B041B0C0380704796
:1032F80083899BB201F0FE0123F0FE030B43838117
:103308007047838919B19BB243F0010303E023F0AE
:1033180001031B041B0C83817047038819B19BB2FE
:1033280043F0400303E023F040031B041B0C03801D
:103338007047038829B16FEA43436FEA53439BB24E
:1033480001E05B045B0C03807047038819B99BB2EA
:1033580043F0800303E023F080031B041B0C03806D
:103368007047B1F5804F838B04D023F480431B044E
:103378001B0C02E09BB243F4804383837047B1F592
:10338800006F038803D19BB243F4006303E023F486
:1033980000631B041B0C03807047B1F5005F0388B2
:1033A80003D19BB243F4005303E023F400531B04FE
:1033B8001B0C03807047038819B19BB243F01003BC
:1033C80003E023F010031B041B0C038070470182E9
:1033D8007047008AC0B27047038819B19BB243F4A2
:1033E800805303E023F480531B041B0C03807047B5
:1033F800B1F5006F038803D19BB243F4006303E087
:1034080023F400631B041B0C03807047038819B165
:103418009BB243F0200303E023F020031B041B0CA2
:1034280003807047008BC0F307207047838819B169
:103438009BB243F4006303E023F400631B041B0CFA
:1034480083807047838819B19BB243F4805303E0AB
:1034580023F480531B041B0C8380704782B0002325
:1034680001930190019BC9180191019B188880B2B2
:1034780002B0704783889BB20AB1194301E023EA7E
:10348800010181807047838A008B9BB243EA004028
:10349800084020F07F40431A584258417047838AB9
:1034A800008B9BB243EA004020F07F40704782B017
:1034B8000023009301930B0F01900093009B21F0D0
:1034C8007F4113B1019B143302E0019B090C1833AF
:1034D8000193019B1B6819420CBF0020012002B018
:1034E8007047C94389B2818270478388808A80B2D5
:1034F80008409BB206D001F0E06113EA11410CBF0D
:10350800002001207047C94389B28182704700BFFB
:103518000A4B1A6842F001021A6000229A60196880
:1035280021F0847121F480311960054959601968C6
:1035380021F480211960DA60704700BF003802402A
:1035480010300024024B00221A701870704700BF18
:1035580002380240034B1A6822F0F80242EAC0001F
:103568001860704700380240014B1860704700BF70
:1035780000004742064B002201281A701A7002D038
:10358800042804D101E01870704705221A707047AA
:1035980070380240014B1860704700BF800E4742E8
:1035A80010B5029C014341EA82125B08013B42EAE2
:1035B800046444EA0344014B5C6010BD00380240D7
:1035C800014B1860704700BF600047428001034B01
:1035D80040EA0171C3F88410704700BF0038024008
:1035E800014B1860704700BF68004742014B1860E4
:1035F800704700BF4C004742034B9A6822F0EC62C8
:10360800104301439960704700380240034B9A68A1
:1036180022F0784210430143996070470038024015
:10362800034B9A6822F0030210439860704700BF6A
:1036380000380240024B986800F00C00704700BF49
:1036480000380240034B9A6822F0F0021043986059
:10365800704700BF00380240034B9A6822F4E052DA
:1036680010439860704700BF00380240034B9A68C7
:1036780022F4604242EAC000986070470038024075
:103688001E4B9A6802F00C02042A10B503D0082ACF
:1036980003D01B4B18E01B4B16E059685A6811F40D
:1036A800800F596814BF174B154B02F03F02B3FB4C
:1036B800F2F3124A5268C2F30142C1F3881101328F
:1036C8004B435200B3FBF2F30C4903608B680E4A7C
:1036D800C3F30313D45C036823FA04F343608C68D0
:1036E800C4F38224145D23FA04F484608968C1F366
:1036F8004231525C23FA02F3C36010BD0038024025
:103708000024F40000127A00C000002000F4407386
:10371800B3F5407F084B08D1996820F0704221F436
:10372800F81122F440720A439A601A6F000542EABF
:1037380010501867704700BF00380240014B1860EE
:10374800704700BF3C0E4742014B1860704700BFEE
:10375800400E4742014B1860704700BF5C0147426A
:10376800044B1A6B09B1104301E022EA0000186308
:10377800704700BF00380240044B5A6B09B1104330
:1037880001E022EA00005863704700BF0038024099
:10379800044B9A6B09B1104301E022EA00009863D8
:1037A800704700BF00380240044B1A6C09B110433F
:1037B80001E022EA00001864704700BF00380240A8
:1037C800044B5A6C09B1104301E022EA0000586426
:1037D800704700BF00380240044B1A6909B1104312
:1037E80001E022EA00001861704700BF003802407B
:1037F800044B5A6909B1104301E022EA00005861FC
:10380800704700BF00380240044B9A6909B1104361
:1038180001E022EA00009861704700BF00380240CA
:10382800044B1A6A09B1104301E022EA0000186249
:10383800704700BF00380240044B5A6A09B1104370
:1038480001E022EA00005862704700BF00380240D9
:10385800044B1A6D09B1104301E022EA0000186513
:10386800704700BF00380240044B5A6D09B110433D
:1038780001E022EA00005865704700BF00380240A6
:10388800044B9A6D09B1104301E022EA00009865E3
:10389800704700BF00380240044B1A6E09B110434C
:1038A80001E022EA00001866704700BF00380240B5
:1038B800044B5A6E09B1104301E022EA0000586631
:1038C800704700BF00380240044B1A7809B1104312
:1038D80001E022EA00001870704700BF0D3802406E
:1038E8004309012B074A01D1136803E0022B0CBFDF
:1038F800136F536F00F01F0023FA00F000F001006F
:10390800704700BF0038024007B5002301933120FB
:10391800FFF7E6FF019B01330193019BB3F5A06F0D
:1039280001D00028F3D03120FFF7DAFF003018BFAC
:1039380001200EBD024B5A6F42F080725A677047E1
:1039480000380240034BDB6818420CBF00200120FE
:10395800704700BF00380240014B1870704700BF25
:103968000E38024008B5154B98420BD101214FF48F
:103978008050FFF761FF4FF480500021BDE80840F8
:10398800FFF75ABF0E4B984207D14FF480400121F0
:10399800FFF746FF4FF4804009E00A4B98420BD1ED
:1039A8004FF400400121FFF73BFF4FF40040002196
:1039B800BDE80840FFF734BF08BD00BF0030014034
:1039C80000380040003C00400B88028810B54C8845
:1039D80023438C882343CC8823430C8923434C8975
:1039E80023438C892343CC8902F441522343134354
:1039F8009BB20380838B23F400631B041B0C83831B
:103A08000B8A038210BD838B23F47B6323F00F039F
:103A18001B041B0C8383022303848B68F0B5858BFE
:103A2800022BADB238D02A4A8E889468002E14BF73
:103A380002260126240203D5946824F40004946025
:103A4800D2F88440D2F884705268DFF888C002F057
:103A58003F02BCFBF2F2C4F388145443C7F302726A
:103A6800B4FBF2F4CA88B2F5007F4FF00A0201D124
:103A7800240A02E07601B4FBF6F46243B2FBF3F3E6
:103A880005330A229BB2B3FBF2F303F001021202E0
:103A9800C3F34F0392B200E000229C1EA4B2FE2C96
:103AA80028BF0022CC8828BF0223134323430A8857
:103AB8009BB2038445EA02034A8843F40063134334
:103AC8008A8813438A8913439BB28383F0BD00BF5E
:103AD8000038024000127A0000230380438083806C
:103AE800C380038143818381C38107230382704795
:103AF80000230222038043808380C3808260838105
:103B08007047038819B19BB243F0400303E023F0E8
:103B180040031B041B0C03807047838B19B19BB2B5
:103B280043F4806303E023F480631B041B0C83834A
:103B38007047038823F400631B041B0C038003886D
:103B48009BB2194301807047B1F5804F038803D1B8
:103B58009BB243F4804303E023F480431B041B0C13
:103B6800038070474FF6FF639942038803D09BB2E6
:103B780043F4807303E023F480731B041B0C03805D
:103B88007047838819B19BB243F0040303E023F024
:103B980004031B041B0C83807047838819B19BB2F4
:103BA80043F0100303E023F010031B041B0C838075
:103BB8007047838B23F47B6323F00F031B041B0CD8
:103BC8008383022303840B88828BB3F5007F10B5AF
:103BD80092B202D14FF4807302E0002BFAD0002396
:103BE8004C8822438C88898942F4006222430A4324
:103BF80092B21343838310BD808980B2704781815C
:103C08007047038819B19BB243F4005303E023F4CF
:103C180000531B041B0C0380704703889BB243F4BA
:103C2800805303807047012914BF008B808A80B2BB
:103C38007047008A80B2704783889BB20AB11943E3
:103C480001E023EA0101818070470909012303FA91
:103C580001F39BB21AB1828892B2134303E08288BF
:103C680092B222EA030383807047038919420CBF8A
:103C7800002001207047C94389B20181704710B5FF
:103C880084880089012301F00F0280B203FA02F24E
:103C98001040A4B206D0090903FA01F31C420CBF74
:103CA8000020012010BD01F00F01012303FA01F3E8
:103CB800DB439BB20381704730B5048C24F00104C8
:103CC8002404240C0484058B048CADB225F0F30580
:103CD800A4B22A4324F00A0442EA031344F001047C
:103CE8009DB221430583018430BD30B5048C24F096
:103CF80010042404240C0484048B058C24F44074DC
:103D0800ADB22405240D25F0A00545F0100544EAC0
:103D1800022242EA033345EA01119BB28DB20383C2
:103D2800058430BD08B5474B984205D101200146AE
:103D3800FFF782FD01203DE0B0F1804F05D1012061
:103D48000146FFF76DFD012076E03F4B984205D113
:103D580002200121FFF764FD02206DE03B4B9842F1
:103D680005D104200121FFF75BFD042064E0384BF6
:103D7800984205D108200121FFF752FD08205BE099
:103D8800344B984205D110200121FFF749FD10203E
:103D980052E0314B984205D120200121FFF740FD28
:103DA800202049E02D4B984209D102200121FFF73C
:103DB80043FD02200021BDE80840FFF73DBD284B28
:103DC800984207D14FF480300121FFF735FD4FF4B9
:103DD8008030EFE7234B984207D14FF400300121A0
:103DE800FFF72AFD4FF40030E4E71F4B984207D154
:103DF8004FF480200121FFF71FFD4FF48020D9E701
:103E08001A4B984205D140200121FFF709FD4020B7
:103E180012E0174B984205D180200121FFF700FDE1
:103E2800802009E0134B98420BD14FF48070012198
:103E3800FFF7F6FC4FF480700021BDE80840FFF75B
:103E4800EFBC08BD0000014000040040000800402D
:103E5800000C004000100040001400400004014025
:103E68000040014000440140004801400018004063
:103E7800001C0040002000401C4A038890429BB26E
:103E880012D002F5806290420ED0B0F1804F0BD074
:103E9800A2F58032904207D002F58062904203D0AA
:103EA80002F58062904203D14A8823F070031343DD
:103EB8000F4A904208D002F58062904204D023F461
:103EC80040730A899BB2134303804B68C3620B8813
:103ED8000385064B984203D003F58063984201D1CD
:103EE8008B7A038601238382704700BF000001405C
:103EF800001000404FF0FF3343600023038003812C
:103F0800438083727047018582827047038823F05B
:103F180070031B041B0C19430180704741627047F2
:103F2800C1627047406A7047008D80B2704703884D
:103F380019B19BB243F0020303E023F002031B0410
:103F48001B0C03807047038819B19BB243F004032C
:103F580003E023F004031B041B0C03807047038851
:103F680019B19BB243F0800303E023F080031B04E4
:103F78001B0C03807047038823F008031B041B0CE9
:103F8800038003889BB2194301807047038823F498
:103F980040731B041B0C038003889BB219430180E8
:103FA8007047038819B19BB243F0010303E023F083
:103FB80001031B041B0C03807047038C23F00103CF
:103FC8001B041B0C038470B5038C8488028B0D883A
:103FD8004E8822F073021204120C2A438D8923F0B2
:103FE80002031B0435431B0CADB22B430E4DA842F4
:103FF800A4B203D005F58065A8420ED1CD894E8ABA
:1040080023F008032B438D8823F004032B430D8AE8
:10401800354324F44074ADB22C43848002838A680B
:104028004263038470BD00BF00000140038C23F08D
:1040380010031B041B0C0384038C828830B5048B8B
:104048000D8824F4E6442404240C23F0200344EAD5
:1040580005241B048D891B0C43EA05134D8843EA8C
:104068000513134DA84292B2A4B29BB203D005F532
:104078008065A84215D1CD8923F080039BB243EA1D
:1040880005134FF6BF751D408B8845EA03130D8A4B
:1040980022F4406242EA85024D8A42EA85029BB2D6
:1040A80092B282808A6804838263038430BD00BF31
:1040B80000000140038C23F480731B041B0C038451
:1040C800038C828830B5848B0D8824F07304240413
:1040D800240C23F400731B042C438D891B0C43EA26
:1040E80005234D8843EA0523124DA84292B29BB29C
:1040F80003D005F58065A84215D1CD8923F4006366
:104108009BB243EA05234FF6FF351D408B8845EAED
:1041180003230D8A22F4405242EA05124D8A42EAEC
:1041280005129BB292B282808A688483C263038438
:1041380030BD00BF00000140038C23F480531B04F2
:104148001B0C0384038C30B58488828B0D8822F481
:10415800E6421204120C23F4005342EA05221B041F
:104168008D891B0C43EA05334D8843EA05330B4D13
:10417800A842A4B292B29BB203D005F58065A842CA
:1041880005D10D8A24F4804444EA8514A4B28480BD
:1041980082838A680264038430BD00BF0000014046
:1041A800002303804380838083608381C3810382EB
:1041B8004382704730B5058C0124ADB204FA01F48E
:1041C80025EA040400F11803048409B1082907D179
:1041D80049084FF68F70CC582040C850C8580AE09C
:1041E8000439C1F34E0148F6FF70CC582040C8503E
:1041F8001202C85892B20243CA5030BD4163704798
:1042080081637047C163704701647047038B23F073
:1042180070031B041B0C194301837047038B23F4A1
:10422800E0431B041B0C43EA01218BB20383704754
:10423800838B23F070031B041B0C19438183704785
:10424800838B23F4E0431B041B0C43EA01218BB24C
:1042580083837047038B23F008031B041B0C19434B
:1042680001837047038B23F400631B041B0C43EA90
:1042780001218BB203837047838B23F008031B044F
:104288001B0C194381837047838B23F400631B0441
:104298001B0C43EA01218BB283837047038B23F005
:1042A80004031B041B0C194301837047038B23F47D
:1042B80080631B041B0C43EA01218BB20383704704
:1042C800838B23F004031B041B0C19438183704761
:1042D800838B23F480631B041B0C43EA01218BB2FC
:1042E80083837047038B23F080031B041B0C194343
:1042F80001837047038B09025B0441EA53439BB275
:1043080003837047838B23F080031B041B0C194322
:1043180081837047838B09025B0441EA53439BB254
:1043280083837047038C23F002031B041B0C19437F
:1043380001847047038C23F008031B041B0C1943EA
:1043480001847047038C23F020031B041B0C43EAF1
:1043580001118BB203847047038C23F080031B0484
:104368001B0C43EA01118BB203847047038C23F4BE
:1043780000731B041B0C43EA01218BB203847047B2
:10438800038C23F400631B041B0C43EA01218BB24A
:1043980003847047038C23F400531B041B0C43EA6B
:1043A80001318BB20384704710B5048C0123A4B289
:1043B80003FA01F324EA03030384038C02FA01F2EB
:1043C80013439BB2038410BD10B5048C0423A4B21C
:1043D80003FA01F324EA03030384038C02FA01F2CB
:1043E80013439BB2038410BD002301220380438042
:1043F8008280C38003817047406B7047806B704731
:10440800C06B7047006C7047038B23F00C031B04D0
:104418001B0C0383038B9BB2194301837047038BE7
:1044280023F440631B041B0C0383038B9BB243EAF6
:1044380001218BB203837047F8B50C464988A288DE
:10444800B4F800E02389054600290CBF022700279D
:10445800012A14BF01260226BEF1000F11D1FFF771
:104468002BFC2846E188FFF7CFFF2846394632461D
:104478002389FFF73AFCE1882846BDE8F840FFF7B2
:10448800CEBFFFF732FC2846E188FFF7C8FF284671
:10449800394632462389FFF70FFCE1882846BDE8F4
:1044A800F840FFF7B1BF838B23F00C031B041B0CF0
:1044B8008383838B9BB2194381837047838B23F457
:1044C80040631B041B0C8383838B9BB243EA01214B
:1044D8008BB283837047F8B50D460B88AA88498844
:1044E800044643B92B89FFF7E7FBE9882046BDE876
:1044F800F840FFF789BF042B08D12B89FFF7F5FB9C
:10450800E9882046BDE8F840FFF789BF082BB5F8D1
:1045180008C0078C1ED127F480773F043F0C07841E
:10452800868B038CB6B29BB226F0F30623F4206385
:1045380046EA0C1C43EA01211FFA8CFC89B24CEABA
:10454800020241F4807182830184E988BDE8F84061
:10455800FFF7A9BF27F480573F043F0C0784868BD9
:10456800038C26F4407623F4005336055B04360D9D
:104578005B0C46EA022243EA013342EA0C329BB260
:10458800E98892B243F4805382830384BDE8F840FB
:10459800FFF794BF4A880B8813438A881343CA8855
:1045A80013430A8913434A8913438A8913439BB2E5
:1045B800A0F8443070470023038043808380C38081
:1045C8000381438183817047B0F8443029B16FEA91
:1045D80043436FEA53439BB201E05B045B0CA0F8D2
:1045E80044307047838819B19BB243F0040303E059
:1045F80023F004031B041B0C83807047838819B1C4
:104608009BB243F0010303E023F001031B041B0CDE
:104618008380704783899BB20AB1194301E023EA7A
:1046280001018181704781827047038A19420CBF5A
:10463800002001207047C94389B201827047038A6C
:10464800828911EA030092B203D011420CBF002004
:1046580001207047C94389B2018270470A43A0F814
:104668004820704783899BB20AB1194301E023EAC5
:10467800010181817047838819B19BB243F0080317
:1046880003E023F008031B041B0C83807047038995
:1046980023F007031B041B0C03817047038923F0D5
:1046A80070031B041B0C1943018103899BB243F05F
:1046B80007030381704738B50D4611460122602D66
:1046C800044602D1FFF711FB01E0FFF7F5FA238951
:1046D80023F070031B041B0C2B43238123899BB2FB
:1046E80043F00703238138BD038923F070031B04BB
:1046F8001B0C194301817047838823F070031B0446
:104708001B0C838083889BB219438180704703897F
:1047180023F007031B041B0C038103899BB2194375
:1047280001817047038923F080031B041B0C03815C
:1047380003899BB219430181704710B50489E4B21B
:1047480021430A4342EA03239CB2048110BD10B5F9
:104758000446FFF7F2FF23899BB243F48043238189
:1047680010BD10B50446FFF7E8FF238923F077034F
:104778001B041B0C43F07703238110BD70B505891A
:10478800048B068C24F44074B6B224F0030426F09B
:10479800220625F00705240432432D04240C2D0C91
:1047A80044F4807442EA0313294344F001049EB29E
:1047B80001810483068470BD838819B19BB243F0DC
:1047C800800303E023F080031B041B0C83807047E5
:1047D800A0F85010704700BF08B501214FF00050F5
:1047E800FFF71EF84FF000500021BDE80840FFF722
:1047F80017B80A4B30B51A6840F6FE7505FA00F589
:1048080022EA050591E8140014438A68C96822431E
:104818000A4302FA00F02843186030BD00740040D3
:104828000023036043608360C3607047074B012225
:1048380021B1196802FA00F20A4304E0196802FA81
:1048480000F221EA02021A60704700BF00740040BB
:10485800074B0009012221B1596802FA00F20A4304
:1048680004E0596802FA00F221EA02025A6070472D
:1048780000740040044B5A6810B142F0030201E092
:1048880022F003025A60704700740040054B01FA99
:1048980000F112B11A68114302E01A6822EA010114
:1048A800196070470074004082B000230193054BE3
:1048B8000193019B083318180190019B196002B0FD
:1048C800704700BF0074004082B000230193054B7D
:1048D8000193019B143318180190019B196002B0D1
:1048E800704700BF007400400828044B0CBF42EA20
:1048F800012142EA0141C150704700BF20740040C5
:1049080082B000230193064B0193019B2C3303EBE8
:1049180090000190019B186880B202B0704700BFF8
:1049280000740040074B4FF4805221B1196802FA15
:1049380000F20A4304E0196802FA00F221EA0202CE
:104948001A60704700740040054B01FA00F112B17B
:104958001A68114302E01A6822EA010119607047D7
:1049680000740040044B5B6B01FA00F119420CBF64
:1049780000200120704700BF00740040024B01FA7C
:1049880000F15963704700BF00740040054B01FAFD
:1049980000F11A68586B084003D011420CBF002080
:1049A8000120704700740040024B01FA00F159637E
:1049B800704700BF007400402DE9F74F044600F02F
:1049C800C1FB002800F04082204600F0C7FB0646E5
:1049D800002800F03982C0F3074202F00800C0B294
:1049E8000192002861D0204600F0F7FDA146074655
:1049F800A2464FF00008DFF874B353E0F9074AD530
:104A08005FFA88F211462046009200F0ECFD10F0A3
:104A1800010F0546009A21D0DAF8541001258D605F
:104A2800E078A84207D10869D9F87813C0F31200D2
:104A3800091AC9F88813DBF8001020460B681146DC
:104A48009847E278012A09D1B8F1000F06D194F805
:104A58001121052A02D1204600F0D3FD05F00202FB
:104A6800D2B21AB1DAF854200225956005F0040292
:104A7800D2B21AB1DAF854200425956005F0080579
:104A8800EDB245B1DBF80020204692689047DAF88D
:104A980054200823936008F101087F080AF1040AEA
:104AA80009F12809002FA9D10120019A02F0040A6E
:104AB8005FFA8AF3002B00F0AF80204600F09BFDE0
:104AC800254681464FF00008A1E019F0010F00F0DB
:104AD800998023695FFA88FA19695F6B04EB8A0287
:104AE80027FA0AF79269FF019268FFB20F4317404D
:104AF800FA071CD55A6B012000FA08F122EA0102D4
:104B08005A63AB69994A9860136807465B68204600
:104B180051469847E378BB4209D1B8F1000F06D156
:104B280094F81131042B02D1204600F06AFD07F0F9
:104B38000403DBB213B1AB6904279F6007F00803D5
:104B4800DBB213B1AB6908279F6007F01003DBB233
:104B580013B1AB6910279F6007F02003DBB213B1D4
:104B6800AB6920279F6007F04003DBB213B1AB6944
:104B780040279F6007F00203DBB213B1AB6902273D
:104B88009F6027F07F0717F0FF0F3BD0282707FB10
:104B9800084707F58C77BB697A69D21ABB689A42CD
:104BA80038BF134603F1030CAB694FEA9C0C9B69B1
:104BB8001CE0B968C2EB030B8B4528BF8B460BF191
:104BC800030C4FEA9C0CF968CDF800C01FFA8BF370
:104BD8002046524600F062F9FB68DDF800C05B44ED
:104BE800FB60BB695B44BB61AB699B699BB2634576
:104BF80005D9BA697B699A4201D2002BD9D1AB6930
:104C080080279F6008F101084FEA59090435B9F176
:104C1800000F7FF45AAF0120F5B205F00203DBB2B2
:104C280013B1E36802225A61C6F3076303F08003F5
:104C3800DBB2CBB1A37A43B1D4F80C31D4F80C2150
:104C48006FF341036FF30003136023695A6822F07E
:104C580001025A60454B1B6820469B699847E368E8
:104C68004FF000425A610120C6F3072808F00803F4
:104C7800DBB2F3B13D4B1B6820465B69984723695B
:104C88009A68E3684FF400615961A37A83B1D30746
:104C98000ED5D4F80C311A6842F001021A601A686D
:104CA80042F003021A60324B1A6942F006021A6196
:104CB800012005F00803DBB243B12C4B1B682046EA
:104CC800DB689847E36808225A61012005F010055F
:104CD800EDB2002D36D0E3689A6922F010029A618D
:104CE8001F6A282507F00F0305FB0345C7F3434355
:104CF800022B05F55C7502D0062B1DD111E047F695
:104D0800F0733B40C3B1C7F30A173A462046E96837
:104D180000F0D7F8EB68DB19EB60AB69DF19AF611E
:104D28000AE0204604F5B961082200F0CAF8AB6928
:104D3800C7F30A17DB19AB61E3689A6942F01002FE
:104D48009A61012008F01003DBB2002B3AD02369E6
:104D58005A68002522F001025A602946204600F0D0
:104D6800A0F923462A46FF2109E000BF6801002078
:104D780000ED00E058698160186D0132816060784B
:104D880004338242F6D3236901274FF0FF3267F3D9
:104D98000F059A6167F31F450F22DD615A612F22C3
:104DA8001A611A686FF30A121A60204600F029FC8B
:104DB800E3684FF480525A61244B1B6820461B69F4
:104DC8009847384608F020085FFA88F3EBB1204688
:104DD80000F080FAE3682046DD6800F06DFA0328E9
:104DE80006D10023A3704FF40073A380092304E0C5
:104DF8000123A3704023A380052363F38D25E36873
:104E08004FF40052DD6001205A61C6F3074606F0F0
:104E18001003DBB24BB10D4B1B682046DB6998478A
:104E2800E3684FF480125A61012006F02006F6B2BA
:104E380056B1064B1B6820461B6A9847E3684FF437
:104E480000125A610120FFE7BDE8FE8F68010020CB
:104E580037B50023104C019305460320FCF7E2F90F
:104E6800EB681A69013C019213D0019A002AF4DA1E
:104E7800019A42F001020192019A1A61064A1969DF
:104E8800013A019102D00199C907F8D40320FCF72F
:104E9800C9F900203EBD00BF410D030030B5C478FC
:104EA8006CB900EB820003339B10D0F8D050224637
:104EB80003E051F82200013228609A42F9D100201B
:104EC80030BD033210B59210D0F8D040002303E073
:104ED800206841F82300013393424FEA8300F7D159
:104EE800081810BD0122F0B5002382704022012964
:104EF800C37082800CD108230370042343704FF4DD
:104F0800A073C38002230372C1724FF0A04309E06B
:104F180041B90C230370062343704FF4A063C38088
:104F28001F4BC17203F500620261C36045780246F7
:104F38001946002407E001F5106701F53061116595
:104F48005761013431460432AC4201F12006F2D3F4
:104F580003F58062426103F58862C0F8CC200478CA
:104F680003F5A061002205E000EB82050132C5F8D7
:104F780090102031A242F7D303F58051002206E0B9
:104F880000EB82050132C5F8D01001F58051A2422C
:104F9800F6D303F56063C0F80C310020F0BD00BF04
:104FA8000000044038B5037AC2680025012B044686
:104FB80025D1936B417A65F3104309B143F480130B
:104FC8009363D36823F4800323F0500343F0100362
:104FD8006FF3C3036FF3C7136FF351436FF3D343F7
:104FE800D3602046FFF734FFE378012B3ED1052339
:104FF80063F34405E36845F020059D6036E0D36817
:1050080043F04003D360FFF723FF237A627A032B30
:1050180014BF4FF434134FF43C130AB143F4801314
:10502800E26814209363FCF707F9E268217AD368F1
:10503800032908BF43F48033D360237A032B15D1A7
:10504800156B012363F39B656FF3D7552D2345F04B
:10505800805563F316451563C820FCF7EDF8E3683F
:1050680045F400051D63C820FCF7E6F8E378012B3A
:1050780007D1E3689D68052262F3440545F02005E1
:105088009D60002038BDC3689A6842F001029A60AA
:1050980000207047C3689A6822F001029A600020D5
:1050A800704707B500230193019B43F02003019348
:1050B800019B61F38A130193019BC2681361064B3C
:1050C8001169013B019102D001998806F8D40320A7
:1050D800FCF7A8F800200EBD410D030007B500231A
:1050E8000193019B43F010030193019BC268136174
:1050F800064B1169013B019102D00199C906F8D408
:105108000320FCF78FF800200EBD00BF410D0300FF
:10511800C26808B5D36801296FF35D736FF39E7396
:1051280002D143F0005302E009B943F08043322032
:10513800D360FCF781F8002008BDC368586900F007
:1051480001007047C368586900F0010080F0010051
:105158007047C368586900F001007047C3685A690E
:10516800986910407047C3685868704703691A689F
:1051780061F301021A607047C268002393614FF01F
:10518800FF335361536053610A4B9361C37891694C
:10519800002B14BF4FF400634FF4016343F4701302
:1051A80043F4405343F0080321EA03010B4393619E
:1051B800002070470008008038B5D0F80C31002274
:1051C8001A60036915461A6865F3CC221A60C37A17
:1051D800012B04461BD10321FFF7C8FFE368802198
:1051E8004FF4800261F30F0259629A62C02262F39F
:1051F8000F0561F31F454FF4A072C3F8045162F321
:105208000F056FF31F45C3F80851C3F80C5110215F
:105218002046FFF746FF2046FFF760FF226900237C
:105228004FF0FF31136118465361FF259161D36137
:1052380011E004EB8302013392691168C1F307613D
:1052480001F08001C9B2002914BF4FF0904100213C
:1052580011601061956062789342EAD30023184682
:10526800FF2511E004EB83020133526D1168C1F38D
:10527800076101F08001C9B2002914BF4FF09041C5
:10528800002111601061956062789342EAD3236926
:105298001A6942F480721A61E278012A04D1054A37
:1052A800402161F359421A632046FFF765FF002049
:1052B80038BD00BF0301010003699B68C3F34103C4
:1052C800013B022B02D8024AD05C7047032070478A
:1052D800386400080369816910B59C680A68C4F3DA
:1052E8004100022802D06FF30A0202E0032060F3B3
:1052F8000A020A605A6842F480725A60002010BD9F
:1053080030B54D780B780022012D00EB830405D1D0
:1053180005FA03F3A46963F30F0205E0012505FA12
:1053280003F3646D63F31F422368C3F3072505F095
:105338008005EDB26DB98D6865F30A03CD78C9882B
:1053480065F3934361F3995343F0805343F4004367
:1053580023600369D9690A43DA61002030BD30B59A
:105368004D780B780024012D224600EB830105D1EE
:1053780005FA03F3896963F30F0205E0012505FACD
:1053880003F3496D63F31F4203696FF3CF340C6075
:10539800D96921EA0202DA61002030BD70B54E7881
:1053A8000A78012E0B4600EB820248D195695C69A8
:1053B8002A68296964F3120114B966F3DC410BE029
:1053C8009E68A419013CB4FBF6F6DC7866F3DC4170
:1053D800012C08BF64F35E712961C178012906D1E7
:1053E800197800EB81018C69196961610CE0D97841
:1053F800012909D0596939B101691C784D6B012619
:1054080006FA04F42C434C63D978012907D10169C1
:105418008968C90554BF42F0005242F08052197899
:1054280000EB810142F0044289690A60DA78012AB6
:1054380037D1D9681A789B8AFFF730FD31E0556D6E
:105448005E692A689C6829692EB964F312010124EF
:1054580064F3DC410AE03619013EB6FBF4F666F364
:10546800DC41B605B60D744364F312012961C178B5
:10547800012905D1197800EB81014C6D1969616129
:10548800D978012906D1597911B142F0005201E0C9
:1054980042F080521B7800EB830042F00442436DD7
:1054A8001A60002070BD73B54E78012E3DD1826917
:1054B8004C69136815690095EDB244B964F30605A3
:1054C8009DF802408DF8005066F3C4040EE08E6823
:1054D800B4428ABF4E6164F3060566F306059DF87B
:1054E80002408DF80050012565F3C4048DF8024090
:1054F800009C1461C478012C05D10C7800EB84045D
:10550800A5690C696C6143F004431360C378002BF0
:1055180035D14B69002B32D003690A78586B0121C9
:1055280001FA02F202435A6329E00B784E698C684B
:1055380000EB83035A6D136815690095EDB206B93F
:1055480000E04C6164F306059DF802408DF80050B8
:10555800012565F3C4048DF80240009C1461C278EB
:10556800012A05D10A7800EB8202546D0A6962614A
:105578000A7800EB820043F00443426D1360002078
:105588007CBD4B78012B0B7800EB83000AD1826934
:105598001368C3F3076101F08001C9B221B143F078
:1055A800804301E0426D136843F400131360002048
:1055B80070474B78012B0B78C97800EB83000CBF40
:1055C8008269426D136802396FF35553012998BFF8
:1055D80043F0805313600020704703699A69D869C3
:1055E8001040000C704700EB810102694B6D9B680D
:1055F80050691840704703699869DB69184080B2A0
:10560800704782B000230093C0238DF80330012235
:10561800002362F3C4038DF8023018238DF800309C
:10562800009A436D1A61C278012A06D100F5B96063
:1056380058611A684FF080221A6002B07047D0F89B
:10564800143110B50446D3B103699A68D00716D54A
:10565800A27A42B1D4F80C21D4F80C116FF34102AC
:105668006FF300020A605A6842F001025A6005208E
:10567800FBF7E2FD23695A6822F001025A6010BD67
:10568800837A63B103699B68DB0708D5D0F80C31CE
:10569800D0F80C216FF341036FF3000313607047D8
:1056A800012310B5002280F8123104460346FF2179
:1056B80004E058698160186D0132816060780433B4
:1056C8008242F6D3236900221A615A61DA614FF0E7
:1056D800FF329A612046FFF701FD20461021BDE800
:1056E8001040FFF7DEBC4B78012B0B7800EB8300F2
:1056F8000FD183691868C0F3074000F02003DBB2BC
:10570800CBB900F00200C0B200280CBF3020202026
:105718007047436D1868C0F3074000F02003DBB200
:105728005BB900F00200C0B200280CBF4FF4405033
:105738004FF400507047102070474FF48050704766
:1057480030B54D78012D0D780C4600EB85030CD152
:105758009D69102A2B6803D1BDE83040FFF711BFBF
:10576800202A00D10CE0302A0FE05D6DB2F5805F91
:105778002B6802D143F400131CE0B2F5005F02D19C
:1057880043F0006316E0B2F5405F10D1C3F307425F
:1057980002F02002D2B22AB100236371BDE8304082
:1057A800FFF707BF43F0806343F0802302E00AB9A4
:1057B80062F3CF332B6030BDF8B50446FFF792FB98
:1057C8000122002384F8122184F813312825164673
:1057D800194640270CE005FB03F000F58C702218F1
:1057E8002354D3805670D1709760D16051610133D2
:1057F80060788342EFD300232825194640260CE021
:1058080005FB03F000F55C7022182354D380517017
:10581800D1709660D1605161013362789342EFD3C1
:105828002046FFF737FC2046FFF7BCFB0021204647
:10583800FFF76EFC2046FFF7BFFC2046BDE8F840A6
:10584800FFF721BC70B5CDB201F07F044FF02806F8
:1058580006FB040415F0800F14BF04F58C7404F5DE
:105868005C7401F07F01ED0921706570A260E3703E
:1058780005B1E180022B01D1002323712146FFF7F6
:105888003FFD002070BD10B5CAB201F07F034FF094
:10589800280404FB030312F0800F14BF03F58C7374
:1058A80003F55C7301F07F01D20919705A7019462B
:1058B800FFF755FD002010BD38B501F07F042825FD
:1058C800654305F55C75411944554B610023CA6071
:1058D8008B614B70C378012B08BF0A6114B9FFF7BD
:1058E800E2FD01E0FFF75AFD002038BDF8B501F0F0
:1058F8007F042826664306F58C7681190127CA603D
:105908000A61002205464F7084558A614B6114B9BB
:10591800FFF7C9FD01E0FFF741FD0020F8BDCAB25D
:1059280012F0800F10B54FF0280306D001F07F0465
:1059380003FB040303F58C7303E003FB010303F586
:105948005C73D209012401F07F0119709C705A70B0
:105958001946FFF716FE002010BDCAB212F0800FDC
:1059680010B54FF0280306D001F07F0403FB0403B1
:1059780003F58C7303E003FB010303F55C73002458
:10598800D20901F07F0119709C705A701946FFF70F
:1059980010FE204610BD08B50B0604D501F07F01A6
:1059A800FFF77FFB01E0FFF799FB002008BD0269C4
:1059B800002361F30A1311680B43136070470369EE
:1059C8005A6803206FF341025A60FBF735BC03693C
:1059D8005A68032042F002025A60FBF72DBC11F00E
:1059E800800F4FF0280306D001F07F0103FB01016F
:1059F80001F58C7103E003FB010101F55C71FFF710
:105A080072BE11F0800F4FF0280306D001F07F011D
:105A180003FB010101F58C7103E003FB010101F5B2
:105A28005C71FFF78DBE000022230B800048704791
:105A3800D000002008B58121FFF7ADFF002008BD88
:105A480010B50C7814F06004034624D0202C1BD128
:105A58004A78023A092A19D8DFE802F01109181819
:105A6800181818180C058A781C4B1A600CE0184690
:105A78001A4906E04A88194B120A5A6004E0184984
:105A88001846012200F074FB002010BD184600F0F3
:105A980079F8022010BD4A780A2A19D00B2A19D0A1
:105AA800062AF1D14A88120A222A05D1CA880D4944
:105AB8004A2A28BF4A2209E0212A05D1CA880A4968
:105AC800092A28BF092201E0214622461846D9E7BB
