:020000040800F2
:1000000000000220610D00089B0100089D0100080E
:100010009F010008A1010008A301000800000000E2
:10002000000000000000000000000000A501000822
:10003000A701000800000000A9010008AB010008AA
:10004000BD0D0008BD0D0008BD0D0008BD0D000868
:10005000BD0D0008BD0D0008BD0D0008BD0D000858
:10006000BD0D0008BD0D0008BD0D0008BD0D000848
:10007000BD0D0008BD0D0008BD0D0008BD0D000838
:10008000BD0D0008BD0D0008BD0D0008BD0D000828
:10009000BD0D0008BD0D0008BD0D0008BD0D000818
:1000A000BD0D0008BD0D0008BD0D0008BD0D000808
:1000B000BD0D0008BD0D0008BD0D0008BD0D0008F8
:1000C000BD0D0008BD0D0008BD0D0008BD0D0008E8
:1000D000BD0D0008BD0D0008BD0D0008BD0D0008D8
:1000E000BD0D0008BD0D0008BD0D0008BD0D0008C8
:1000F000BD0D0008BD0D0008BD0D0008BD0D0008B8
:10010000BD0D0008BD0D0008BD0D0008BD0D0008A7
:10011000BD0D0008BD0D0008BD0D0008BD0D000897
:10012000BD0D0008BD0D0008BD0D0008BD0D000887
:10013000BD0D0008BD0D0008BD0D0008BD0D000877
:10014000BD0D0008BD0D0008BD0D0008BD0D000867
:10015000BD0D0008BD0D0008BD0D0008BD0D000857
:10016000BD0D0008BD0D0008BD0D0008BD0D000847
:10017000BD0D0008BD0D0008BD0D0008BD0D000837
:08018000BD0D0008BD0D0008D3
:1001880082B00190019B5A1E0192002BFAD102B055
:1001980070477047FEE7FEE7FEE7FEE770477047E7
:1001A80070477047344B1A6842F001021A60002207
:1001B8009A60196821F0847121F4803119602F49FF
:1001C8005960196882B021F480211960DA600092C0
:1001D80001921A6842F480321A601A6802F40032F6
:1001E8000192009A01320092019A1AB9009AB2F566
:1001F800A06FF2D1204B1B6813F4003318BF012302
:100208000193019B012B04D01D4B4FF000629A60B3
:100218002FE0194B1A6C42F080521A64194A11687F
:1002280041F4804111609A689A609A6842F40042E9
:100238009A609A6842F4A0529A60134A5A601A68FF
:1002480042F080721A6019680B4A8901FBD50F4B7E
:1002580040F205611960936823F003039360936883
:1002680043F002039360936803F00C03082BFAD160
:10027800CAE702B0704700BF0038024010300024BF
:1002880000ED00E00070004008544007003C0240C8
:10029800184B194A996801F00C01042903D0082960
:1002A80003D0164B19E0164B17E059685A6811F439
:1002B800800F596814BF124B104B02F03F02B3FB7A
:1002C800F2F30C4A5268C2F30142C1F388110132B9
:1002D80052004B43B3FBF2F3074A1360054B9A688D
:1002E800054BC2F303129A1811791A6822FA01F21F
:1002F8001A60704700380240000000200024F40013
:1003080000127A0037B50E4D044655F8200005EB6B
:100318004405012100F05CFB2B8A009301238DF832
:1003280004308DF8073002238DF80530054B002284
:1003380053F824008DF80620694600F089F93EBD7F
:10034800C00D000814000020044A054B53F8203063
:1003580002EB4000028A1A83704700BFC00D0008F4
:1003680014000020044A054B53F8203002EB4000EB
:10037800028A5A83704700BFC00D0008140000208D
:100388000549064B53F8203001EB40005A69018AB1
:100398004A405A61704700BFC00D00081400002091
:1003A80070B50646012086B00D46014600F010FBE8
:1003B80001214FF4804000F03BFB06A9012341F8DE
:1003C800103D154B03EB8606002430698DF80C4070
:1003D8008DF80F4000F03CF9012D1BD12046214635
:1003E80000F03AF8082304A88DF8153004958DF824
:1003F80014408DF8165000F0FBFB06238DF80430EE
:1004080001A80F238DF805308DF806308DF80750B8
:1004180000F05AF806B070BD1400002008B5044B6F
:1004280003EB80000121006900F072F908BD00BFEC
:100438001400002008B501214FF4804000F034FB7F
:100448004FF480400021BDE8084000F02DBB014B6F
:10045800186070470038014001F0030289080A4B10
:10046800023130B5920053F821500F2404FA02F4F7
:1004780025EA040443F8214053F8214000FA02F029
:10048800044343F8214030BD00380140014B186057
:10049800704700BFDC002742014B1860704700BF5F
:1004A80000042742024B186AC0F30020704700BFBF
:1004B8000038014040F0BF60024B40F40030D86083
:1004C800704700BF00ED00E0C37813B3174B4178C5
:1004D800DB68DB43C3F30223C3F10402D2B201FA9F
:1004E80002F20F2141FA03F38178D2B20B401A438A
:1004F800037803F1604303F561431201D2B283F834
:10050800002303780122590903F01F0302FA03F3B9
:1005180007E003780122590903F01F0302FA03F3E5
:100528002031034A42F82130704700BF00ED00E057
:1005380000E100E021F0604121F07F01014B084318
:100548009860704700ED00E0044B1A6909B1104348
:1005580001E022EA00001861704700BF00ED00E0EA
:10056800044B1A6804280CBF42F0040222F004026B
:100578001A60704710E000E008B52C4B984205D18E
:100588000120014600F060FA012048E0284B98421B
:1005980005D10220012100F057FA02203FE0254B47
:1005A800984205D10420012100F04EFA042036E0DB
:1005B800214B984205D10820012100F045FA082076
:1005C8002DE01E4B984205D11020012100F03CFA85
:1005D800102024E01A4B984205D12020012100F078
:1005E80033FA20201BE0174B984205D14020012107
:1005F80000F02AFA402012E0134B984205D18020DF
:10060800012100F021FA802009E0104B98420BD11B
:100618004FF48070012100F017FA4FF48070002128
:10062800BDE8084000F010BA08BD00BF0000024055
:100638000004024000080240000C02400010024082
:100648000014024000180240001C02400020024032
:100658002DE9F0470F6800234FF0010C4FF0030815
:100668000CFA03F202EA0705954231D15A000668EE
:1006780008FA02F4E443264006600E79D0F80090A8
:1006880006FA02FA013E4AEA0909012EC0F800906A
:1006980015D8866891F8059026408660866809FA1C
:1006A80002F949EA06068660466826EA05054560B5
:1006B8008D79466805FA03F5ADB235434560C568DE
:1006C8002C40C460CD79C46805FA02F22243C260A6
:1006D8000133102BC4D1BDE8F0874FF6FF730360D8
:1006E8000023037143718371C371704782B04FF463
:1006F80080330193019B0B430193019BC361C1614B
:10070800019BC361C3690193C369019302B0704738
:10071800036919420CBF002001207047006980B2AC
:100728007047436919420CBF002001207047406997
:1007380080B2704701837047418370470AB10183D3
:10074800704741837047416170474369594041612F
:10075800704701F00703C908083130B59B0050F80D
:1007680021500F2404FA03F425EA040440F8214038
:1007780050F8214002FA03F2144340F8214030BDFA
:100788000A4B1A6842F001021A6000229A6019683E
:1007980021F0847121F48031196005495960196884
:1007A80021F480211960DA60704700BF00380240E8
:1007B80010300024024B00221A701870704700BFD6
:1007C80002380240034B1A6822F0F80242EAC000DD
:1007D8001860704700380240014B1860704700BF2E
:1007E80000004742064B002201281A701A7002D0F6
:1007F800042804D101E01870704705221A70704768
:1008080070380240014B1860704700BF800E4742A5
:1008180010B5029C014341EA82125B08013B42EA9F
:10082800046444EA0344014B5C6010BD0038024094
:10083800014B1860704700BF600047428001034BBE
:1008480040EA0171C3F88410704700BF00380240C5
:10085800014B1860704700BF68004742014B1860A1
:10086800704700BF4C004742034B9A6822F0EC6285
:10087800104301439960704700380240034B9A685F
:1008880022F07842104301439960704700380240D3
:10089800034B9A6822F0030210439860704700BF28
:1008A80000380240024B986800F00C00704700BF07
:1008B80000380240034B9A6822F0F0021043986017
:1008C800704700BF00380240034B9A6822F4E05298
:1008D80010439860704700BF00380240034B9A6885
:1008E80022F4604242EAC000986070470038024033
:1008F8001E4B9A6802F00C02042A10B503D0082A8D
:1009080003D01B4B18E01B4B16E059685A6811F4CA
:10091800800F596814BF174B154B02F03F02B3FB09
:10092800F2F3124A5268C2F30142C1F3881101324C
:100938004B435200B3FBF2F30C4903608B680E4A39
:10094800C3F30313D45C036823FA04F343608C688D
:10095800C4F38224145D23FA04F484608968C1F323
:100968004231525C23FA02F3C36010BD00380240E2
:100978000024F40000127A002800002000F44073DC
:10098800B3F5407F084B08D1996820F0704221F4F4
:10099800F81122F440720A439A601A6F000542EA7D
:1009A80010501867704700BF00380240014B1860AC
:1009B800704700BF3C0E4742014B1860704700BFAC
:1009C800400E4742014B1860704700BF5C01474228
:1009D800044B1A6B09B1104301E022EA00001863C6
:1009E800704700BF00380240044B5A6B09B11043EE
:1009F80001E022EA00005863704700BF0038024057
:100A0800044B9A6B09B1104301E022EA0000986395
:100A1800704700BF00380240044B1A6C09B11043FC
:100A280001E022EA00001864704700BF0038024065
:100A3800044B5A6C09B1104301E022EA00005864E3
:100A4800704700BF00380240044B1A6909B11043CF
:100A580001E022EA00001861704700BF0038024038
:100A6800044B5A6909B1104301E022EA00005861B9
:100A7800704700BF00380240044B9A6909B110431F
:100A880001E022EA00009861704700BF0038024088
:100A9800044B1A6A09B1104301E022EA0000186207
:100AA800704700BF00380240044B5A6A09B110432E
:100AB80001E022EA00005862704700BF0038024097
:100AC800044B1A6D09B1104301E022EA00001865D1
:100AD800704700BF00380240044B5A6D09B11043FB
:100AE80001E022EA00005865704700BF0038024064
:100AF800044B9A6D09B1104301E022EA00009865A1
:100B0800704700BF00380240044B1A6E09B1104309
:100B180001E022EA00001866704700BF0038024072
:100B2800044B5A6E09B1104301E022EA00005866EE
:100B3800704700BF00380240044B1A7809B11043CF
:100B480001E022EA00001870704700BF0D3802402B
:100B58004309012B074A01D1136803E0022B0CBF9C
:100B6800136F536F00F01F0023FA00F000F001002C
:100B7800704700BF0038024007B5002301933120B9
:100B8800FFF7E6FF019B01330193019BB3F5A06FCB
:100B980001D00028F3D03120FFF7DAFF003018BF6A
:100BA80001200EBD024B5A6F42F080725A6770479F
:100BB80000380240034BDB6818420CBF00200120BC
:100BC800704700BF00380240014B1870704700BFE3
:100BD8000E380240044B00221A605A609A60DA60AC
:100BE800024A5A61704700BF003C0140FFFF7F0086
:100BF800837910B5002B29D01A4B01681C68CA43A9
:100C080014401C605C6822405A60027902F18042FC
:100C180002F59E3214682143116002689C68D14332
:100C28000C409C60DC682140D9604179102906D1CC
:100C3800996811439960D9680A43DA6010BD01F1D7
:100C4800804303F59E3319680A4308E00379016875
:100C580003F1804303F59E331A6822EA01021A6001
:100C680010BD00BF003C014000230C22036003714B
:100C7800427183717047024B1A69104318617047BB
:100C8800003C0140034B5B6918420CBF0020012067
:100C9800704700BF003C0140014B5861704700BFDE
:100CA800003C0140054B1A685B69034004D01042C0
:100CB8000CBF00200120704718467047003C0140D7
:100CC800014B5861704700BF003C0140E80D000827
:100CD80000000020380000203800002044000020D8
:100CE80008B508200121FFF773FE184918484FF48A
:100CF80070430B6001230B71032200238B714A712F
:100D0800CB71FFF7A5FC4FF480511148FFF712FD96
:100D18001048FFF735FA4FF400510D48FFF70AFD68
:100D28000C48FFF72DFA4FF480410948FFF702FD00
:100D38000848FFF725FA06484FF47041FFF7FCFC16
:100D48006FF07F40FFF71CFADDE700BF3800002096
:100D5800000C0240FFFF3F00002100F004B80F4BD9
:100D68005B58435004310E480E4B42189A42FFF428
:100D7800F6AF0D4A00F003B8002342F8043B0B4BD2
:100D88009A42FFF4F9AF0A48016841F47001016022
:100D9800FFF708FAFFF7A4FF70470000E80D000806
:100DA8000000002038000020380000204400002007
:100DB80088ED00E0FFF7FEBF080000000800000013
:100DC800080000000800000000100020004000801B
:100DD8000600000001000000010000000100000002
:100DE800007A030A0000000000000000010203046A
:100DF80006070809000C0240000C0240000C0240E3
:100E0800000C024000000240000000000102030440
:080E18000102030406070809AA
:0400000508000D6181
:00000001FF
